:020000020000FC
:040000001DC046C019
:10003C000FE50DBF02E00EBF00E40BBF02E805BFE9
:10004C000FEF07BB0093001000E008BB5CD108D198
:10005C0099E0E6EDF0E019D100EC0093002099E076
:10006C0014D1B1D057D03FD106D1789490E1E8EEBD
:10007C00F0E00BD151D1273509F48FD0233509F499
:10008C00ACD0F8CF0F9300910010D1D0613091F02B
:10009C000A32B1F4F0D09FE0E8EFF0E0F6D000ECDB
:1000AC000093002004D1049100930021A0E0B1E062
:1000BC0061E006C0033231F00D930093002173957B
:1000CC000F911895662793D0FBCF5350445320566D
:1000DC00322E30436865636B73756D205072657397
:1000EC0073202A20746F20426567696E456E7465B3
:1000FC00722050617373636F64653A3E474F4F448F
:10010C0020556E6C6F636B214241442041747465C1
:10011C006D707421E6E4F3E0EE2EFF2EEE27FF2740
:10012C0022273327442755270591200F351F451FBC
:10013C00EE15D1F7FF15C1F7042F17D0B3D00093EC
:10014C000021B0D010930021032F0FD0ABD000931F
:10015C000021A8D010930021022F07D0A3D0009328
:10016C000021A0D0109300210895EE24F02E0695C6
:10017C000695069506950A3020F0095020E4020FEA
:10018C0007C020E3020F04C0102F0F2D0F70F3CF08
:10019C00E39422E0E216C1F70895C8D000910070F4
:1001AC00E4DFBAD0212FBDD00000B6D0202FB9D0BB
:1001BC0008950F931F9301E008BB8ED0002708BB56
:1001CC001F910F9108950AE2D0E0C0E609930993BC
:1001DC0009930993099309930895A8D0D0E0C0E638
:1001EC0006E09AD029939DD00A95D9F708957630D8
:1001FC0089F4D0E0C0E6B1E0A0E00D9119911017A0
:10020C0049F47A95D1F737D09CE0E8E0F1E03DD0A5
:10021C00D0DF06C030D09CE0E4E1F1E036D063D012
:10022C002AD090E1E8EEF0E030D077270895F02E58
:10023C00F3FE09C0F2FE10C0F0FC00E3F0FE0AE28F
:10024C00F1FC03E20CC0F2FC04C0039510E4010FB6
:10025C0006C010E4010F03C00A9510E4010F0895C5
:10026C0030D008E30093002018D00093002015D064
:10027C000CE00093002011D001E00093002017D077
:10028C0006E00093002009D008950CD0059100934E
:10029C0000219A95D1F706D00895BF93AF93A6E0AD
:1002AC00B0E014C0BF93AF93A8ECB0E00FC0BF9305
:1002BC00AF93A0E3B1E00AC0BF93AF93AFE6B2E057
:1002CC0005C0BF93AF93A0E4BFE100C0119700003D
:1002DC00E9F7AF91BF910895CF93BF93AF93A0E48B
:1002EC00B2E4C0E107C0CF93BF93AF93A0E8BAE1EB
:1002FC00C7E000C011970000E9F7CA95D9F7AF9194
:10030C00BF91CF91089500E000BD09E109B908E162
:10031C000AB906E800BD08952BB12078E9F32CB199
:10032C0008952CB92BB12032E9F3089521E3F9DFBC
:0C033C00F3DF21E3F6DFF0DF089500009E
:00000001FF
